{
    "contractName": "SupplyChain",
    "abi": [
        {
            "anonymous": false,
            "inputs": [
                {
                    "indexed": false,
                    "internalType": "uint32",
                    "name": "productId",
                    "type": "uint32"
                }
            ],
            "name": "TransferOwnership",
            "type": "event"
        },
        {
            "inputs": [
                {
                    "internalType": "string",
                    "name": "_name",
                    "type": "string"
                },
                {
                    "internalType": "string",
                    "name": "_pass",
                    "type": "string"
                },
                {
                    "internalType": "address",
                    "name": "_pAdd",
                    "type": "address"
                },
                {
                    "internalType": "string",
                    "name": "_pType",
                    "type": "string"
                }
            ],
            "name": "addParticipant",
            "outputs": [
                {
                    "internalType": "uint32",
                    "name": "",
                    "type": "uint32"
                }
            ],
            "stateMutability": "nonpayable",
            "type": "function"
        },
        {
            "inputs": [
                {
                    "internalType": "uint32",
                    "name": "_ownerId",
                    "type": "uint32"
                },
                {
                    "internalType": "string",
                    "name": "_modelNumber",
                    "type": "string"
                },
                {
                    "internalType": "string",
                    "name": "_partNumber",
                    "type": "string"
                },
                {
                    "internalType": "string",
                    "name": "_serialNumber",
                    "type": "string"
                },
                {
                    "internalType": "uint32",
                    "name": "_productCost",
                    "type": "uint32"
                }
            ],
            "name": "addProduct",
            "outputs": [
                {
                    "internalType": "uint32",
                    "name": "",
                    "type": "uint32"
                }
            ],
            "stateMutability": "nonpayable",
            "type": "function"
        },
        {
            "inputs": [
                {
                    "internalType": "uint32",
                    "name": "_uid",
                    "type": "uint32"
                },
                {
                    "internalType": "string",
                    "name": "_uname",
                    "type": "string"
                },
                {
                    "internalType": "string",
                    "name": "_pass",
                    "type": "string"
                },
                {
                    "internalType": "string",
                    "name": "_utype",
                    "type": "string"
                }
            ],
            "name": "authenticateParticipant",
            "outputs": [
                {
                    "internalType": "bool",
                    "name": "",
                    "type": "bool"
                }
            ],
            "stateMutability": "view",
            "type": "function"
        },
        {
            "inputs": [
                {
                    "internalType": "uint32",
                    "name": "_regId",
                    "type": "uint32"
                }
            ],
            "name": "getOwner",
            "outputs": [
                {
                    "internalType": "uint32",
                    "name": "",
                    "type": "uint32"
                },
                {
                    "internalType": "uint32",
                    "name": "",
                    "type": "uint32"
                },
                {
                    "internalType": "address",
                    "name": "",
                    "type": "address"
                },
                {
                    "internalType": "uint32",
                    "name": "",
                    "type": "uint32"
                }
            ],
            "stateMutability": "view",
            "type": "function"
        },
        {
            "inputs": [
                {
                    "internalType": "uint32",
                    "name": "_participantId",
                    "type": "uint32"
                }
            ],
            "name": "getParticipant",
            "outputs": [
                {
                    "internalType": "string",
                    "name": "",
                    "type": "string"
                },
                {
                    "internalType": "address",
                    "name": "",
                    "type": "address"
                },
                {
                    "internalType": "string",
                    "name": "",
                    "type": "string"
                }
            ],
            "stateMutability": "view",
            "type": "function"
        },
        {
            "inputs": [
                {
                    "internalType": "uint32",
                    "name": "_productId",
                    "type": "uint32"
                }
            ],
            "name": "getProduct",
            "outputs": [
                {
                    "internalType": "string",
                    "name": "",
                    "type": "string"
                },
                {
                    "internalType": "string",
                    "name": "",
                    "type": "string"
                },
                {
                    "internalType": "string",
                    "name": "",
                    "type": "string"
                },
                {
                    "internalType": "uint32",
                    "name": "",
                    "type": "uint32"
                },
                {
                    "internalType": "address",
                    "name": "",
                    "type": "address"
                },
                {
                    "internalType": "uint32",
                    "name": "",
                    "type": "uint32"
                }
            ],
            "stateMutability": "view",
            "type": "function"
        },
        {
            "inputs": [
                {
                    "internalType": "uint32",
                    "name": "_prodId",
                    "type": "uint32"
                }
            ],
            "name": "getProvenance",
            "outputs": [
                {
                    "internalType": "uint32[]",
                    "name": "",
                    "type": "uint32[]"
                }
            ],
            "stateMutability": "view",
            "type": "function"
        },
        {
            "inputs": [
                {
                    "internalType": "uint32",
                    "name": "_user1Id",
                    "type": "uint32"
                },
                {
                    "internalType": "uint32",
                    "name": "_user2Id",
                    "type": "uint32"
                },
                {
                    "internalType": "uint32",
                    "name": "_prodId",
                    "type": "uint32"
                }
            ],
            "name": "newOwner",
            "outputs": [
                {
                    "internalType": "bool",
                    "name": "",
                    "type": "bool"
                }
            ],
            "stateMutability": "nonpayable",
            "type": "function"
        },
        {
            "inputs": [],
            "name": "owner_id",
            "outputs": [
                {
                    "internalType": "uint32",
                    "name": "",
                    "type": "uint32"
                }
            ],
            "stateMutability": "view",
            "type": "function"
        },
        {
            "inputs": [
                {
                    "internalType": "uint32",
                    "name": "",
                    "type": "uint32"
                }
            ],
            "name": "ownerships",
            "outputs": [
                {
                    "internalType": "uint32",
                    "name": "productId",
                    "type": "uint32"
                },
                {
                    "internalType": "uint32",
                    "name": "ownerId",
                    "type": "uint32"
                },
                {
                    "internalType": "uint32",
                    "name": "trxTimeStamp",
                    "type": "uint32"
                },
                {
                    "internalType": "address",
                    "name": "productOwner",
                    "type": "address"
                }
            ],
            "stateMutability": "view",
            "type": "function"
        },
        {
            "inputs": [],
            "name": "participant_id",
            "outputs": [
                {
                    "internalType": "uint32",
                    "name": "",
                    "type": "uint32"
                }
            ],
            "stateMutability": "view",
            "type": "function"
        },
        {
            "inputs": [
                {
                    "internalType": "uint32",
                    "name": "",
                    "type": "uint32"
                }
            ],
            "name": "participants",
            "outputs": [
                {
                    "internalType": "string",
                    "name": "userName",
                    "type": "string"
                },
                {
                    "internalType": "string",
                    "name": "password",
                    "type": "string"
                },
                {
                    "internalType": "string",
                    "name": "participantType",
                    "type": "string"
                },
                {
                    "internalType": "address",
                    "name": "participantAddress",
                    "type": "address"
                }
            ],
            "stateMutability": "view",
            "type": "function"
        },
        {
            "inputs": [
                {
                    "internalType": "uint32",
                    "name": "",
                    "type": "uint32"
                },
                {
                    "internalType": "uint256",
                    "name": "",
                    "type": "uint256"
                }
            ],
            "name": "productTrack",
            "outputs": [
                {
                    "internalType": "uint32",
                    "name": "",
                    "type": "uint32"
                }
            ],
            "stateMutability": "view",
            "type": "function"
        },
        {
            "inputs": [],
            "name": "product_id",
            "outputs": [
                {
                    "internalType": "uint32",
                    "name": "",
                    "type": "uint32"
                }
            ],
            "stateMutability": "view",
            "type": "function"
        },
        {
            "inputs": [
                {
                    "internalType": "uint32",
                    "name": "",
                    "type": "uint32"
                }
            ],
            "name": "products",
            "outputs": [
                {
                    "internalType": "string",
                    "name": "modelNumber",
                    "type": "string"
                },
                {
                    "internalType": "string",
                    "name": "partNumber",
                    "type": "string"
                },
                {
                    "internalType": "string",
                    "name": "serialNumber",
                    "type": "string"
                },
                {
                    "internalType": "address",
                    "name": "productOwner",
                    "type": "address"
                },
                {
                    "internalType": "uint32",
                    "name": "cost",
                    "type": "uint32"
                },
                {
                    "internalType": "uint32",
                    "name": "mfgTimeStamp",
                    "type": "uint32"
                }
            ],
            "stateMutability": "view",
            "type": "function"
        }
    ],
    "bytecode": "6080604052600080546001600160601b031916905534801561002057600080fd5b50612376806100306000396000f3fe608060405234801561001057600080fd5b50600436106100f55760003560e01c806381e1561011610097578063c856956511610066578063c85695651461034a578063eab0a4791461036a578063ebf43a7e1461037a578063fc2da9101461038d57600080fd5b806381e15610146102665780638f5ebf71146102e9578063a638ac4914610300578063bf712fd61461032557600080fd5b806350632104116100d3578063506321041461016c578063621b23e21461017f578063721b5743146102305780637d0a9ac91461024357600080fd5b80631a074802146100fa5780632e9d5284146101275780633b26a65d1461014a575b600080fd5b61010d610108366004611c11565b6103a5565b60405163ffffffff90911681526020015b60405180910390f35b61013a610135366004611c3b565b6103ee565b604051901515815260200161011e565b61015d610158366004611c7e565b611027565b60405161011e93929190611cf0565b61010d61017a366004611dd1565b61117e565b6101f761018d366004611c7e565b63ffffffff8082166000908152600360209081526040918290208251608081018452905480851680835264010000000082048616938301849052600160401b82049095169382018490526001600160a01b03600160601b9091041660609091018190529093509193565b6040805163ffffffff958616815293851660208501526001600160a01b039092169183019190915291909116606082015260800161011e565b61013a61023e366004611e7b565b61138d565b610256610251366004611c7e565b6114e2565b60405161011e9493929190611f14565b6102b3610274366004611c7e565b60036020526000908152604090205463ffffffff808216916401000000008104821691600160401b82041690600160601b90046001600160a01b031684565b6040805163ffffffff9586168152938516602085015291909316908201526001600160a01b03909116606082015260800161011e565b60005461010d90600160401b900463ffffffff1681565b61031361030e366004611c7e565b6116ab565b60405161011e96959493929190611f67565b610338610333366004611c7e565b6118b9565b60405161011e96959493929190611fd2565b61035d610358366004611c7e565b611a9b565b60405161011e919061203a565b60005461010d9063ffffffff1681565b61010d610388366004612084565b611b30565b60005461010d90640100000000900463ffffffff1681565b600460205281600052604060002081815481106103c157600080fd5b9060005260206000209060089182820401919006600402915091509054906101000a900463ffffffff1681565b63ffffffff811660009081526001602052604081206003015482906001600160a01b0316331461043e5760405162461bcd60e51b8152602060048201526000602482015260440160405180910390fd5b63ffffffff851660009081526002602052604080822081516080810190925280548290829061046c90612114565b80601f016020809104026020016040519081016040528092919081815260200182805461049890612114565b80156104e55780601f106104ba576101008083540402835291602001916104e5565b820191906000526020600020905b8154815290600101906020018083116104c857829003601f168201915b505050505081526020016001820180546104fe90612114565b80601f016020809104026020016040519081016040528092919081815260200182805461052a90612114565b80156105775780601f1061054c57610100808354040283529160200191610577565b820191906000526020600020905b81548152906001019060200180831161055a57829003601f168201915b5050505050815260200160028201805461059090612114565b80601f01602080910402602001604051908101604052809291908181526020018280546105bc90612114565b80156106095780601f106105de57610100808354040283529160200191610609565b820191906000526020600020905b8154815290600101906020018083116105ec57829003601f168201915b5050509183525050600391909101546001600160a01b031660209182015263ffffffff8716600090815260029091526040808220815160808101909252805493945091929091908290829061065d90612114565b80601f016020809104026020016040519081016040528092919081815260200182805461068990612114565b80156106d65780601f106106ab576101008083540402835291602001916106d6565b820191906000526020600020905b8154815290600101906020018083116106b957829003601f168201915b505050505081526020016001820180546106ef90612114565b80601f016020809104026020016040519081016040528092919081815260200182805461071b90612114565b80156107685780601f1061073d57610100808354040283529160200191610768565b820191906000526020600020905b81548152906001019060200180831161074b57829003601f168201915b5050505050815260200160028201805461078190612114565b80601f01602080910402602001604051908101604052809291908181526020018280546107ad90612114565b80156107fa5780601f106107cf576101008083540402835291602001916107fa565b820191906000526020600020905b8154815290600101906020018083116107dd57829003601f168201915b5050509183525050600391909101546001600160a01b03166020909101526000805491925090600160401b900463ffffffff168160086108398361214e565b91906101000a81548163ffffffff021916908363ffffffff16021790555090507fcec9b8e63c868f2f7f30368f1583e7aa39ae80e163d57a859fa5a90244b28ac1836040015160405160200161088f919061217f565b604051602081830303815290604052805190602001201480156108e9575060008051602061232183398151915282604001516040516020016108d1919061217f565b60405160208183030381529060405280519060200120145b15610b015785600360008363ffffffff1663ffffffff16815260200190815260200160002060000160006101000a81548163ffffffff021916908363ffffffff1602179055508160600151600360008363ffffffff1663ffffffff168152602001908152602001600020600001600c6101000a8154816001600160a01b0302191690836001600160a01b0316021790555086600360008363ffffffff1663ffffffff16815260200190815260200160002060000160046101000a81548163ffffffff021916908363ffffffff16021790555042600360008363ffffffff1663ffffffff16815260200190815260200160002060000160086101000a81548163ffffffff021916908363ffffffff1602179055508160600151600160008863ffffffff1663ffffffff16815260200190815260200160002060030160006101000a8154816001600160a01b0302191690836001600160a01b03160217905550600460008763ffffffff1663ffffffff1681526020019081526020016000208190806001815401808255809150506001900390600052602060002090600891828204019190066004029091909190916101000a81548163ffffffff021916908363ffffffff1602179055507fa5470ac012c6e9dc500e62b1d3de0de58db49b3ab7cfebbfb126d9abd854199b86604051610aed919063ffffffff91909116815260200190565b60405180910390a16001945050505061101f565b6000805160206123218339815191528360400151604051602001610b25919061217f565b60405160208183030381529060405280519060200120148015610b7f57506000805160206123218339815191528260400151604051602001610b67919061217f565b60405160208183030381529060405280519060200120145b15610d835785600360008363ffffffff1663ffffffff16815260200190815260200160002060000160006101000a81548163ffffffff021916908363ffffffff1602179055508160600151600360008363ffffffff1663ffffffff168152602001908152602001600020600001600c6101000a8154816001600160a01b0302191690836001600160a01b0316021790555086600360008363ffffffff1663ffffffff16815260200190815260200160002060000160046101000a81548163ffffffff021916908363ffffffff16021790555042600360008363ffffffff1663ffffffff16815260200190815260200160002060000160086101000a81548163ffffffff021916908363ffffffff1602179055508160600151600160008863ffffffff1663ffffffff16815260200190815260200160002060030160006101000a8154816001600160a01b0302191690836001600160a01b03160217905550600460008763ffffffff1663ffffffff1681526020019081526020016000208190806001815401808255809150506001900390600052602060002090600891828204019190066004029091909190916101000a81548163ffffffff021916908363ffffffff1602179055507fa5470ac012c6e9dc500e62b1d3de0de58db49b3ab7cfebbfb126d9abd854199b86604051610aed919063ffffffff91909116815260200190565b6000805160206123218339815191528360400151604051602001610da7919061217f565b60405160208183030381529060405280519060200120148015610e1357507fc0878b4b16a78e8085cba0ca02fc0924f1492924058d153153a3f286e0fd70ff8260400151604051602001610dfb919061217f565b60405160208183030381529060405280519060200120145b156110175785600360008363ffffffff1663ffffffff16815260200190815260200160002060000160006101000a81548163ffffffff021916908363ffffffff1602179055508160600151600360008363ffffffff1663ffffffff168152602001908152602001600020600001600c6101000a8154816001600160a01b0302191690836001600160a01b0316021790555086600360008363ffffffff1663ffffffff16815260200190815260200160002060000160046101000a81548163ffffffff021916908363ffffffff16021790555042600360008363ffffffff1663ffffffff16815260200190815260200160002060000160086101000a81548163ffffffff021916908363ffffffff1602179055508160600151600160008863ffffffff1663ffffffff16815260200190815260200160002060030160006101000a8154816001600160a01b0302191690836001600160a01b03160217905550600460008763ffffffff1663ffffffff1681526020019081526020016000208190806001815401808255809150506001900390600052602060002090600891828204019190066004029091909190916101000a81548163ffffffff021916908363ffffffff1602179055507fa5470ac012c6e9dc500e62b1d3de0de58db49b3ab7cfebbfb126d9abd854199b86604051610aed919063ffffffff91909116815260200190565b600094505050505b509392505050565b63ffffffff81166000908152600260208190526040822060038101548154606094938593926001600160a01b03169190830190839061106590612114565b80601f016020809104026020016040519081016040528092919081815260200182805461109190612114565b80156110de5780601f106110b3576101008083540402835291602001916110de565b820191906000526020600020905b8154815290600101906020018083116110c157829003601f168201915b505050505092508080546110f190612114565b80601f016020809104026020016040519081016040528092919081815260200182805461111d90612114565b801561116a5780601f1061113f5761010080835404028352916020019161116a565b820191906000526020600020905b81548152906001019060200180831161114d57829003601f168201915b505050505090509250925092509193909250565b63ffffffff8516600090815260026020818152604080842090517fcec9b8e63c868f2f7f30368f1583e7aa39ae80e163d57a859fa5a90244b28ac1936111c7939201910161219b565b6040516020818303038152906040528051906020012003611380576000805463ffffffff1681806111f78361214e565b82546101009290920a63ffffffff818102199093169183160217909155811660009081526001602052604090209091506112318782612260565b5063ffffffff81166000908152600160208190526040909120016112558682612260565b5063ffffffff811660009081526001602052604090206002016112788582612260565b5082600160008363ffffffff1663ffffffff16815260200190815260200160002060030160146101000a81548163ffffffff021916908363ffffffff160217905550600260008863ffffffff1663ffffffff16815260200190815260200160002060030160009054906101000a90046001600160a01b0316600160008363ffffffff1663ffffffff16815260200190815260200160002060030160006101000a8154816001600160a01b0302191690836001600160a01b0316021790555042600160008363ffffffff1663ffffffff16815260200190815260200160002060030160186101000a81548163ffffffff021916908363ffffffff16021790555080915050611384565b5060005b95945050505050565b6000816040516020016113a0919061217f565b60408051601f19818403018152828252805160209182012063ffffffff89166000908152600280845293902090936113dd9391909101910161219b565b6040516020818303038152906040528051906020012014801561145d57508360405160200161140c919061217f565b60408051601f19818403018152828252805160209182012063ffffffff891660009081526002835292909220919261144592910161219b565b60405160208183030381529060405280519060200120145b80156114c9575082604051602001611475919061217f565b60408051601f19818403018152828252805160209182012063ffffffff89166000908152600283529290922091926114b192600101910161219b565b60405160208183030381529060405280519060200120145b156114d6575060016114da565b5060005b949350505050565b6002602052600090815260409020805481906114fd90612114565b80601f016020809104026020016040519081016040528092919081815260200182805461152990612114565b80156115765780601f1061154b57610100808354040283529160200191611576565b820191906000526020600020905b81548152906001019060200180831161155957829003601f168201915b50505050509080600101805461158b90612114565b80601f01602080910402602001604051908101604052809291908181526020018280546115b790612114565b80156116045780601f106115d957610100808354040283529160200191611604565b820191906000526020600020905b8154815290600101906020018083116115e757829003601f168201915b50505050509080600201805461161990612114565b80601f016020809104026020016040519081016040528092919081815260200182805461164590612114565b80156116925780601f1061166757610100808354040283529160200191611692565b820191906000526020600020905b81548152906001019060200180831161167557829003601f168201915b505050600390930154919250506001600160a01b031684565b63ffffffff8082166000908152600160208190526040822060038101548154606095869586959094859485949193928401926002850192600160a01b83048216926001600160a01b03811692600160c01b9091041690869061170c90612114565b80601f016020809104026020016040519081016040528092919081815260200182805461173890612114565b80156117855780601f1061175a57610100808354040283529160200191611785565b820191906000526020600020905b81548152906001019060200180831161176857829003601f168201915b5050505050955084805461179890612114565b80601f01602080910402602001604051908101604052809291908181526020018280546117c490612114565b80156118115780601f106117e657610100808354040283529160200191611811565b820191906000526020600020905b8154815290600101906020018083116117f457829003601f168201915b5050505050945083805461182490612114565b80601f016020809104026020016040519081016040528092919081815260200182805461185090612114565b801561189d5780601f106118725761010080835404028352916020019161189d565b820191906000526020600020905b81548152906001019060200180831161188057829003601f168201915b5050505050935095509550955095509550955091939550919395565b6001602052600090815260409020805481906118d490612114565b80601f016020809104026020016040519081016040528092919081815260200182805461190090612114565b801561194d5780601f106119225761010080835404028352916020019161194d565b820191906000526020600020905b81548152906001019060200180831161193057829003601f168201915b50505050509080600101805461196290612114565b80601f016020809104026020016040519081016040528092919081815260200182805461198e90612114565b80156119db5780601f106119b0576101008083540402835291602001916119db565b820191906000526020600020905b8154815290600101906020018083116119be57829003601f168201915b5050505050908060020180546119f090612114565b80601f0160208091040260200160405190810160405280929190818152602001828054611a1c90612114565b8015611a695780601f10611a3e57610100808354040283529160200191611a69565b820191906000526020600020905b815481529060010190602001808311611a4c57829003601f168201915b505050600390930154919250506001600160a01b0381169063ffffffff600160a01b8204811691600160c01b90041686565b63ffffffff8116600090815260046020908152604091829020805483518184028101840190945280845260609392830182828015611b2457602002820191906000526020600020906000905b82829054906101000a900463ffffffff1663ffffffff1681526020019060040190602082600301049283019260010382029150808411611ae75790505b50505050509050919050565b600080548190640100000000900463ffffffff16816004611b508361214e565b82546101009290920a63ffffffff81810219909316918316021790915581166000908152600260205260409020909150611b8a8782612260565b5063ffffffff81166000908152600260205260409020600101611bad8682612260565b5063ffffffff811660009081526002602081905260409091206003810180546001600160a01b0319166001600160a01b03881617905501611bee8482612260565b5095945050505050565b803563ffffffff81168114611c0c57600080fd5b919050565b60008060408385031215611c2457600080fd5b611c2d83611bf8565b946020939093013593505050565b600080600060608486031215611c5057600080fd5b611c5984611bf8565b9250611c6760208501611bf8565b9150611c7560408501611bf8565b90509250925092565b600060208284031215611c9057600080fd5b611c9982611bf8565b9392505050565b60005b83811015611cbb578181015183820152602001611ca3565b50506000910152565b60008151808452611cdc816020860160208601611ca0565b601f01601f19169290920160200192915050565b606081526000611d036060830186611cc4565b6001600160a01b03851660208401528281036040840152611d248185611cc4565b9695505050505050565b634e487b7160e01b600052604160045260246000fd5b600082601f830112611d5557600080fd5b813567ffffffffffffffff80821115611d7057611d70611d2e565b604051601f8301601f19908116603f01168101908282118183101715611d9857611d98611d2e565b81604052838152866020858801011115611db157600080fd5b836020870160208301376000602085830101528094505050505092915050565b600080600080600060a08688031215611de957600080fd5b611df286611bf8565b9450602086013567ffffffffffffffff80821115611e0f57600080fd5b611e1b89838a01611d44565b95506040880135915080821115611e3157600080fd5b611e3d89838a01611d44565b94506060880135915080821115611e5357600080fd5b50611e6088828901611d44565b925050611e6f60808701611bf8565b90509295509295909350565b60008060008060808587031215611e9157600080fd5b611e9a85611bf8565b9350602085013567ffffffffffffffff80821115611eb757600080fd5b611ec388838901611d44565b94506040870135915080821115611ed957600080fd5b611ee588838901611d44565b93506060870135915080821115611efb57600080fd5b50611f0887828801611d44565b91505092959194509250565b608081526000611f276080830187611cc4565b8281036020840152611f398187611cc4565b90508281036040840152611f4d8186611cc4565b91505060018060a01b038316606083015295945050505050565b60c081526000611f7a60c0830189611cc4565b8281036020840152611f8c8189611cc4565b90508281036040840152611fa08188611cc4565b63ffffffff96871660608501526001600160a01b039590951660808401525050921660a0909201919091529392505050565b60c081526000611fe560c0830189611cc4565b8281036020840152611ff78189611cc4565b9050828103604084015261200b8188611cc4565b6001600160a01b03969096166060840152505063ffffffff9283166080820152911660a0909101529392505050565b6020808252825182820181905260009190848201906040850190845b8181101561207857835163ffffffff1683529284019291840191600101612056565b50909695505050505050565b6000806000806080858703121561209a57600080fd5b843567ffffffffffffffff808211156120b257600080fd5b6120be88838901611d44565b955060208701359150808211156120d457600080fd5b6120e088838901611d44565b9450604087013591506001600160a01b03821682146120fe57600080fd5b90925060608601359080821115611efb57600080fd5b600181811c9082168061212857607f821691505b60208210810361214857634e487b7160e01b600052602260045260246000fd5b50919050565b600063ffffffff80831681810361217557634e487b7160e01b600052601160045260246000fd5b6001019392505050565b60008251612191818460208701611ca0565b9190910192915050565b60008083546121a981612114565b600182811680156121c157600181146121d657612205565b60ff1984168752821515830287019450612205565b8760005260208060002060005b858110156121fc5781548a8201529084019082016121e3565b50505082870194505b50929695505050505050565b601f82111561225b57600081815260208120601f850160051c810160208610156122385750805b601f850160051c820191505b8181101561225757828155600101612244565b5050505b505050565b815167ffffffffffffffff81111561227a5761227a611d2e565b61228e816122888454612114565b84612211565b602080601f8311600181146122c357600084156122ab5750858301515b600019600386901b1c1916600185901b178555612257565b600085815260208120601f198616915b828110156122f2578886015182559484019460019091019084016122d3565b50858210156123105787850151600019600388901b60f8161c191681555b5050505050600190811b0190555056feb77c7d6bf62fa24fc205955093030c58325cd2d3d35fb486ede7594fb99635f5a2646970667358221220267845c537d57b9bcc714eb211abb8e7be16c621695338cd4ab20d505914311964736f6c63430008110033",
    "sourcePath": "/Users/jeffkang/blockchain/ethereum/learning/third/contracts/SupplyChain.sol",
    "compiler": {
        "name": "solc",
        "version": "0.8.17+commit.8df45f5f"
    },
    "functionHashes": {
        "addParticipant(string,string,address,string)": "ebf43a7e",
        "addProduct(uint32,string,string,string,uint32)": "50632104",
        "authenticateParticipant(uint32,string,string,string)": "721b5743",
        "getOwner(uint32)": "621b23e2",
        "getParticipant(uint32)": "3b26a65d",
        "getProduct(uint32)": "a638ac49",
        "getProvenance(uint32)": "c8569565",
        "newOwner(uint32,uint32,uint32)": "2e9d5284",
        "owner_id()": "8f5ebf71",
        "ownerships(uint32)": "81e15610",
        "participant_id()": "fc2da910",
        "participants(uint32)": "7d0a9ac9",
        "productTrack(uint32,uint256)": "1a074802",
        "product_id()": "eab0a479",
        "products(uint32)": "bf712fd6"
    },
    "gasEstimates": {
        "creation": {
            "codeDepositCost": "1815600",
            "executionCost": "26142",
            "totalCost": "1841742"
        },
        "external": {
            "addParticipant(string,string,address,string)": "infinite",
            "addProduct(uint32,string,string,string,uint32)": "infinite",
            "authenticateParticipant(uint32,string,string,string)": "infinite",
            "getOwner(uint32)": "2890",
            "getParticipant(uint32)": "infinite",
            "getProduct(uint32)": "infinite",
            "getProvenance(uint32)": "infinite",
            "newOwner(uint32,uint32,uint32)": "infinite",
            "owner_id()": "2364",
            "ownerships(uint32)": "2725",
            "participant_id()": "2401",
            "participants(uint32)": "infinite",
            "productTrack(uint32,uint256)": "6421",
            "product_id()": "2346",
            "products(uint32)": "infinite"
        }
    }
}