{
  "contractName": "SupplyChain",
  "abi": [
    {
      "anonymous": false,
      "inputs": [
        {
          "indexed": false,
          "internalType": "uint32",
          "name": "productId",
          "type": "uint32"
        }
      ],
      "name": "TransferOwnership",
      "type": "event"
    },
    {
      "inputs": [],
      "name": "owner_id",
      "outputs": [
        {
          "internalType": "uint32",
          "name": "",
          "type": "uint32"
        }
      ],
      "stateMutability": "view",
      "type": "function",
      "constant": true
    },
    {
      "inputs": [
        {
          "internalType": "uint32",
          "name": "",
          "type": "uint32"
        }
      ],
      "name": "ownerships",
      "outputs": [
        {
          "internalType": "uint32",
          "name": "productId",
          "type": "uint32"
        },
        {
          "internalType": "uint32",
          "name": "ownerId",
          "type": "uint32"
        },
        {
          "internalType": "uint32",
          "name": "trxTimeStamp",
          "type": "uint32"
        },
        {
          "internalType": "address",
          "name": "productOwner",
          "type": "address"
        }
      ],
      "stateMutability": "view",
      "type": "function",
      "constant": true
    },
    {
      "inputs": [],
      "name": "participant_id",
      "outputs": [
        {
          "internalType": "uint32",
          "name": "",
          "type": "uint32"
        }
      ],
      "stateMutability": "view",
      "type": "function",
      "constant": true
    },
    {
      "inputs": [
        {
          "internalType": "uint32",
          "name": "",
          "type": "uint32"
        }
      ],
      "name": "participants",
      "outputs": [
        {
          "internalType": "string",
          "name": "userName",
          "type": "string"
        },
        {
          "internalType": "string",
          "name": "password",
          "type": "string"
        },
        {
          "internalType": "string",
          "name": "participantType",
          "type": "string"
        },
        {
          "internalType": "address",
          "name": "participantAddress",
          "type": "address"
        }
      ],
      "stateMutability": "view",
      "type": "function",
      "constant": true
    },
    {
      "inputs": [
        {
          "internalType": "uint32",
          "name": "",
          "type": "uint32"
        },
        {
          "internalType": "uint256",
          "name": "",
          "type": "uint256"
        }
      ],
      "name": "productTrack",
      "outputs": [
        {
          "internalType": "uint32",
          "name": "",
          "type": "uint32"
        }
      ],
      "stateMutability": "view",
      "type": "function",
      "constant": true
    },
    {
      "inputs": [],
      "name": "product_id",
      "outputs": [
        {
          "internalType": "uint32",
          "name": "",
          "type": "uint32"
        }
      ],
      "stateMutability": "view",
      "type": "function",
      "constant": true
    },
    {
      "inputs": [
        {
          "internalType": "uint32",
          "name": "",
          "type": "uint32"
        }
      ],
      "name": "products",
      "outputs": [
        {
          "internalType": "string",
          "name": "modelNumber",
          "type": "string"
        },
        {
          "internalType": "string",
          "name": "partNumber",
          "type": "string"
        },
        {
          "internalType": "string",
          "name": "serialNumber",
          "type": "string"
        },
        {
          "internalType": "address",
          "name": "productOwner",
          "type": "address"
        },
        {
          "internalType": "uint32",
          "name": "cost",
          "type": "uint32"
        },
        {
          "internalType": "uint32",
          "name": "mfgTimeStamp",
          "type": "uint32"
        }
      ],
      "stateMutability": "view",
      "type": "function",
      "constant": true
    },
    {
      "inputs": [
        {
          "internalType": "string",
          "name": "_name",
          "type": "string"
        },
        {
          "internalType": "string",
          "name": "_pass",
          "type": "string"
        },
        {
          "internalType": "address",
          "name": "_pAdd",
          "type": "address"
        },
        {
          "internalType": "string",
          "name": "_pType",
          "type": "string"
        }
      ],
      "name": "addParticipant",
      "outputs": [
        {
          "internalType": "uint32",
          "name": "",
          "type": "uint32"
        }
      ],
      "stateMutability": "nonpayable",
      "type": "function"
    },
    {
      "inputs": [
        {
          "internalType": "uint32",
          "name": "_participantId",
          "type": "uint32"
        }
      ],
      "name": "getParticipant",
      "outputs": [
        {
          "internalType": "string",
          "name": "",
          "type": "string"
        },
        {
          "internalType": "address",
          "name": "",
          "type": "address"
        },
        {
          "internalType": "string",
          "name": "",
          "type": "string"
        }
      ],
      "stateMutability": "view",
      "type": "function",
      "constant": true
    },
    {
      "inputs": [
        {
          "internalType": "uint32",
          "name": "_ownerId",
          "type": "uint32"
        },
        {
          "internalType": "string",
          "name": "_modelNumber",
          "type": "string"
        },
        {
          "internalType": "string",
          "name": "_partNumber",
          "type": "string"
        },
        {
          "internalType": "string",
          "name": "_serialNumber",
          "type": "string"
        },
        {
          "internalType": "uint32",
          "name": "_productCost",
          "type": "uint32"
        }
      ],
      "name": "addProduct",
      "outputs": [
        {
          "internalType": "uint32",
          "name": "",
          "type": "uint32"
        }
      ],
      "stateMutability": "nonpayable",
      "type": "function"
    },
    {
      "inputs": [
        {
          "internalType": "uint32",
          "name": "_productId",
          "type": "uint32"
        }
      ],
      "name": "getProduct",
      "outputs": [
        {
          "internalType": "string",
          "name": "",
          "type": "string"
        },
        {
          "internalType": "string",
          "name": "",
          "type": "string"
        },
        {
          "internalType": "string",
          "name": "",
          "type": "string"
        },
        {
          "internalType": "uint32",
          "name": "",
          "type": "uint32"
        },
        {
          "internalType": "address",
          "name": "",
          "type": "address"
        },
        {
          "internalType": "uint32",
          "name": "",
          "type": "uint32"
        }
      ],
      "stateMutability": "view",
      "type": "function",
      "constant": true
    },
    {
      "inputs": [
        {
          "internalType": "uint32",
          "name": "_user1Id",
          "type": "uint32"
        },
        {
          "internalType": "uint32",
          "name": "_user2Id",
          "type": "uint32"
        },
        {
          "internalType": "uint32",
          "name": "_prodId",
          "type": "uint32"
        }
      ],
      "name": "newOwner",
      "outputs": [
        {
          "internalType": "bool",
          "name": "",
          "type": "bool"
        }
      ],
      "stateMutability": "nonpayable",
      "type": "function"
    },
    {
      "inputs": [
        {
          "internalType": "uint32",
          "name": "_prodId",
          "type": "uint32"
        }
      ],
      "name": "getProvenance",
      "outputs": [
        {
          "internalType": "uint32[]",
          "name": "",
          "type": "uint32[]"
        }
      ],
      "stateMutability": "view",
      "type": "function",
      "constant": true
    },
    {
      "inputs": [
        {
          "internalType": "uint32",
          "name": "_regId",
          "type": "uint32"
        }
      ],
      "name": "getOwner",
      "outputs": [
        {
          "internalType": "uint32",
          "name": "",
          "type": "uint32"
        },
        {
          "internalType": "uint32",
          "name": "",
          "type": "uint32"
        },
        {
          "internalType": "address",
          "name": "",
          "type": "address"
        },
        {
          "internalType": "uint32",
          "name": "",
          "type": "uint32"
        }
      ],
      "stateMutability": "view",
      "type": "function",
      "constant": true
    },
    {
      "inputs": [
        {
          "internalType": "uint32",
          "name": "_uid",
          "type": "uint32"
        },
        {
          "internalType": "string",
          "name": "_uname",
          "type": "string"
        },
        {
          "internalType": "string",
          "name": "_pass",
          "type": "string"
        },
        {
          "internalType": "string",
          "name": "_utype",
          "type": "string"
        }
      ],
      "name": "authenticateParticipant",
      "outputs": [
        {
          "internalType": "bool",
          "name": "",
          "type": "bool"
        }
      ],
      "stateMutability": "view",
      "type": "function",
      "constant": true
    }
  ],
  "bytecode": "0x608060405260008060006101000a81548163ffffffff021916908363ffffffff16021790555060008060046101000a81548163ffffffff021916908363ffffffff16021790555060008060086101000a81548163ffffffff021916908363ffffffff16021790555034801561007357600080fd5b50613007806100836000396000f3fe608060405234801561001057600080fd5b50600436106100f55760003560e01c806381e1561011610097578063c856956511610066578063c85695651461030d578063eab0a4791461033d578063ebf43a7e1461035b578063fc2da9101461038b576100f5565b806381e15610146102525780638f5ebf7114610285578063a638ac49146102a3578063bf712fd6146102d8576100f5565b806350632104116100d3578063506321041461018c578063621b23e2146101bc578063721b5743146101ef5780637d0a9ac91461021f576100f5565b80631a074802146100fa5780632e9d52841461012a5780633b26a65d1461015a575b600080fd5b610114600480360381019061010f91906122d9565b6103a9565b6040516101219190612328565b60405180910390f35b610144600480360381019061013f9190612343565b6103f2565b60405161015191906123b1565b60405180910390f35b610174600480360381019061016f91906123cc565b611212565b604051610183939291906124ca565b60405180910390f35b6101a660048036038101906101a19190612644565b6113c4565b6040516101b39190612328565b60405180910390f35b6101d660048036038101906101d191906123cc565b611643565b6040516101e69493929190612713565b60405180910390f35b61020960048036038101906102049190612758565b611763565b60405161021691906123b1565b60405180910390f35b610239600480360381019061023491906123cc565b6118e0565b6040516102499493929190612813565b60405180910390f35b61026c600480360381019061026791906123cc565b611ac8565b60405161027c949392919061286d565b60405180910390f35b61028d611b48565b60405161029a9190612328565b60405180910390f35b6102bd60048036038101906102b891906123cc565b611b5e565b6040516102cf969594939291906128b2565b60405180910390f35b6102f260048036038101906102ed91906123cc565b611e30565b60405161030496959493929190612928565b60405180910390f35b610327600480360381019061032291906123cc565b612044565b6040516103349190612a5c565b60405180910390f35b6103456120e7565b6040516103529190612328565b60405180910390f35b61037560048036038101906103709190612aaa565b6120fb565b6040516103829190612328565b60405180910390f35b61039361223d565b6040516103a09190612328565b60405180910390f35b600460205281600052604060002081815481106103c557600080fd5b9060005260206000209060089182820401919006600402915091509054906101000a900463ffffffff1681565b600081600160008263ffffffff1663ffffffff16815260200190815260200160002060030160009054906101000a900473ffffffffffffffffffffffffffffffffffffffff1673ffffffffffffffffffffffffffffffffffffffff163373ffffffffffffffffffffffffffffffffffffffff16146104a5576040517f08c379a000000000000000000000000000000000000000000000000000000000815260040161049c90612b8b565b60405180910390fd5b6000600260008763ffffffff1663ffffffff1681526020019081526020016000206040518060800160405290816000820180546104e190612bda565b80601f016020809104026020016040519081016040528092919081815260200182805461050d90612bda565b801561055a5780601f1061052f5761010080835404028352916020019161055a565b820191906000526020600020905b81548152906001019060200180831161053d57829003601f168201915b5050505050815260200160018201805461057390612bda565b80601f016020809104026020016040519081016040528092919081815260200182805461059f90612bda565b80156105ec5780601f106105c1576101008083540402835291602001916105ec565b820191906000526020600020905b8154815290600101906020018083116105cf57829003601f168201915b5050505050815260200160028201805461060590612bda565b80601f016020809104026020016040519081016040528092919081815260200182805461063190612bda565b801561067e5780601f106106535761010080835404028352916020019161067e565b820191906000526020600020905b81548152906001019060200180831161066157829003601f168201915b505050505081526020016003820160009054906101000a900473ffffffffffffffffffffffffffffffffffffffff1673ffffffffffffffffffffffffffffffffffffffff1673ffffffffffffffffffffffffffffffffffffffff168152505090506000600260008763ffffffff1663ffffffff16815260200190815260200160002060405180608001604052908160008201805461071b90612bda565b80601f016020809104026020016040519081016040528092919081815260200182805461074790612bda565b80156107945780601f1061076957610100808354040283529160200191610794565b820191906000526020600020905b81548152906001019060200180831161077757829003601f168201915b505050505081526020016001820180546107ad90612bda565b80601f01602080910402602001604051908101604052809291908181526020018280546107d990612bda565b80156108265780601f106107fb57610100808354040283529160200191610826565b820191906000526020600020905b81548152906001019060200180831161080957829003601f168201915b5050505050815260200160028201805461083f90612bda565b80601f016020809104026020016040519081016040528092919081815260200182805461086b90612bda565b80156108b85780601f1061088d576101008083540402835291602001916108b8565b820191906000526020600020905b81548152906001019060200180831161089b57829003601f168201915b505050505081526020016003820160009054906101000a900473ffffffffffffffffffffffffffffffffffffffff1673ffffffffffffffffffffffffffffffffffffffff1673ffffffffffffffffffffffffffffffffffffffff16815250509050600080600881819054906101000a900463ffffffff168092919061093c90612c3a565b91906101000a81548163ffffffff021916908363ffffffff16021790555090507fcec9b8e63c868f2f7f30368f1583e7aa39ae80e163d57a859fa5a90244b28ac183604001516040516020016109929190612ca2565b604051602081830303815290604052805190602001201480156109fe57507fb77c7d6bf62fa24fc205955093030c58325cd2d3d35fb486ede7594fb99635f582604001516040516020016109e69190612ca2565b60405160208183030381529060405280519060200120145b15610c3e5785600360008363ffffffff1663ffffffff16815260200190815260200160002060000160006101000a81548163ffffffff021916908363ffffffff1602179055508160600151600360008363ffffffff1663ffffffff168152602001908152602001600020600001600c6101000a81548173ffffffffffffffffffffffffffffffffffffffff021916908373ffffffffffffffffffffffffffffffffffffffff16021790555086600360008363ffffffff1663ffffffff16815260200190815260200160002060000160046101000a81548163ffffffff021916908363ffffffff16021790555042600360008363ffffffff1663ffffffff16815260200190815260200160002060000160086101000a81548163ffffffff021916908363ffffffff1602179055508160600151600160008863ffffffff1663ffffffff16815260200190815260200160002060030160006101000a81548173ffffffffffffffffffffffffffffffffffffffff021916908373ffffffffffffffffffffffffffffffffffffffff160217905550600460008763ffffffff1663ffffffff1681526020019081526020016000208190806001815401808255809150506001900390600052602060002090600891828204019190066004029091909190916101000a81548163ffffffff021916908363ffffffff1602179055507fa5470ac012c6e9dc500e62b1d3de0de58db49b3ab7cfebbfb126d9abd854199b86604051610c2a9190612328565b60405180910390a16001945050505061120a565b7fb77c7d6bf62fa24fc205955093030c58325cd2d3d35fb486ede7594fb99635f58360400151604051602001610c749190612ca2565b60405160208183030381529060405280519060200120148015610ce057507fb77c7d6bf62fa24fc205955093030c58325cd2d3d35fb486ede7594fb99635f58260400151604051602001610cc89190612ca2565b60405160208183030381529060405280519060200120145b15610f205785600360008363ffffffff1663ffffffff16815260200190815260200160002060000160006101000a81548163ffffffff021916908363ffffffff1602179055508160600151600360008363ffffffff1663ffffffff168152602001908152602001600020600001600c6101000a81548173ffffffffffffffffffffffffffffffffffffffff021916908373ffffffffffffffffffffffffffffffffffffffff16021790555086600360008363ffffffff1663ffffffff16815260200190815260200160002060000160046101000a81548163ffffffff021916908363ffffffff16021790555042600360008363ffffffff1663ffffffff16815260200190815260200160002060000160086101000a81548163ffffffff021916908363ffffffff1602179055508160600151600160008863ffffffff1663ffffffff16815260200190815260200160002060030160006101000a81548173ffffffffffffffffffffffffffffffffffffffff021916908373ffffffffffffffffffffffffffffffffffffffff160217905550600460008763ffffffff1663ffffffff1681526020019081526020016000208190806001815401808255809150506001900390600052602060002090600891828204019190066004029091909190916101000a81548163ffffffff021916908363ffffffff1602179055507fa5470ac012c6e9dc500e62b1d3de0de58db49b3ab7cfebbfb126d9abd854199b86604051610f0c9190612328565b60405180910390a16001945050505061120a565b7fb77c7d6bf62fa24fc205955093030c58325cd2d3d35fb486ede7594fb99635f58360400151604051602001610f569190612ca2565b60405160208183030381529060405280519060200120148015610fc257507fc0878b4b16a78e8085cba0ca02fc0924f1492924058d153153a3f286e0fd70ff8260400151604051602001610faa9190612ca2565b60405160208183030381529060405280519060200120145b156112025785600360008363ffffffff1663ffffffff16815260200190815260200160002060000160006101000a81548163ffffffff021916908363ffffffff1602179055508160600151600360008363ffffffff1663ffffffff168152602001908152602001600020600001600c6101000a81548173ffffffffffffffffffffffffffffffffffffffff021916908373ffffffffffffffffffffffffffffffffffffffff16021790555086600360008363ffffffff1663ffffffff16815260200190815260200160002060000160046101000a81548163ffffffff021916908363ffffffff16021790555042600360008363ffffffff1663ffffffff16815260200190815260200160002060000160086101000a81548163ffffffff021916908363ffffffff1602179055508160600151600160008863ffffffff1663ffffffff16815260200190815260200160002060030160006101000a81548173ffffffffffffffffffffffffffffffffffffffff021916908373ffffffffffffffffffffffffffffffffffffffff160217905550600460008763ffffffff1663ffffffff1681526020019081526020016000208190806001815401808255809150506001900390600052602060002090600891828204019190066004029091909190916101000a81548163ffffffff021916908363ffffffff1602179055507fa5470ac012c6e9dc500e62b1d3de0de58db49b3ab7cfebbfb126d9abd854199b866040516111ee9190612328565b60405180910390a16001945050505061120a565b600094505050505b509392505050565b606060006060600260008563ffffffff1663ffffffff168152602001908152602001600020600001600260008663ffffffff1663ffffffff16815260200190815260200160002060030160009054906101000a900473ffffffffffffffffffffffffffffffffffffffff16600260008763ffffffff1663ffffffff1681526020019081526020016000206002018280546112ab90612bda565b80601f01602080910402602001604051908101604052809291908181526020018280546112d790612bda565b80156113245780601f106112f957610100808354040283529160200191611324565b820191906000526020600020905b81548152906001019060200180831161130757829003601f168201915b5050505050925080805461133790612bda565b80601f016020809104026020016040519081016040528092919081815260200182805461136390612bda565b80156113b05780601f10611385576101008083540402835291602001916113b0565b820191906000526020600020905b81548152906001019060200180831161139357829003601f168201915b505050505090509250925092509193909250565b60007fcec9b8e63c868f2f7f30368f1583e7aa39ae80e163d57a859fa5a90244b28ac1600260008863ffffffff1663ffffffff1681526020019081526020016000206002016040516020016114199190612d51565b604051602081830303815290604052805190602001200361163557600080600081819054906101000a900463ffffffff168092919061145790612c3a565b91906101000a81548163ffffffff021916908363ffffffff160217905550905085600160008363ffffffff1663ffffffff16815260200190815260200160002060000190816114a69190612eff565b5084600160008363ffffffff1663ffffffff16815260200190815260200160002060010190816114d69190612eff565b5083600160008363ffffffff1663ffffffff16815260200190815260200160002060020190816115069190612eff565b5082600160008363ffffffff1663ffffffff16815260200190815260200160002060030160146101000a81548163ffffffff021916908363ffffffff160217905550600260008863ffffffff1663ffffffff16815260200190815260200160002060030160009054906101000a900473ffffffffffffffffffffffffffffffffffffffff16600160008363ffffffff1663ffffffff16815260200190815260200160002060030160006101000a81548173ffffffffffffffffffffffffffffffffffffffff021916908373ffffffffffffffffffffffffffffffffffffffff16021790555042600160008363ffffffff1663ffffffff16815260200190815260200160002060030160186101000a81548163ffffffff021916908363ffffffff1602179055508091505061163a565b600090505b95945050505050565b6000806000806000600360008763ffffffff1663ffffffff1681526020019081526020016000206040518060800160405290816000820160009054906101000a900463ffffffff1663ffffffff1663ffffffff1681526020016000820160049054906101000a900463ffffffff1663ffffffff1663ffffffff1681526020016000820160089054906101000a900463ffffffff1663ffffffff1663ffffffff16815260200160008201600c9054906101000a900473ffffffffffffffffffffffffffffffffffffffff1673ffffffffffffffffffffffffffffffffffffffff1673ffffffffffffffffffffffffffffffffffffffff1681525050905080600001518160200151826060015183604001519450945094509450509193509193565b6000816040516020016117769190612ca2565b60405160208183030381529060405280519060200120600260008763ffffffff1663ffffffff1681526020019081526020016000206002016040516020016117be9190612d51565b6040516020818303038152906040528051906020012014801561184d5750836040516020016117ed9190612ca2565b60405160208183030381529060405280519060200120600260008763ffffffff1663ffffffff1681526020019081526020016000206000016040516020016118359190612d51565b60405160208183030381529060405280519060200120145b80156118c55750826040516020016118659190612ca2565b60405160208183030381529060405280519060200120600260008763ffffffff1663ffffffff1681526020019081526020016000206001016040516020016118ad9190612d51565b60405160208183030381529060405280519060200120145b156118d357600190506118d8565b600090505b949350505050565b600260205280600052604060002060009150905080600001805461190390612bda565b80601f016020809104026020016040519081016040528092919081815260200182805461192f90612bda565b801561197c5780601f106119515761010080835404028352916020019161197c565b820191906000526020600020905b81548152906001019060200180831161195f57829003601f168201915b50505050509080600101805461199190612bda565b80601f01602080910402602001604051908101604052809291908181526020018280546119bd90612bda565b8015611a0a5780601f106119df57610100808354040283529160200191611a0a565b820191906000526020600020905b8154815290600101906020018083116119ed57829003601f168201915b505050505090806002018054611a1f90612bda565b80601f0160208091040260200160405190810160405280929190818152602001828054611a4b90612bda565b8015611a985780601f10611a6d57610100808354040283529160200191611a98565b820191906000526020600020905b815481529060010190602001808311611a7b57829003601f168201915b5050505050908060030160009054906101000a900473ffffffffffffffffffffffffffffffffffffffff16905084565b60036020528060005260406000206000915090508060000160009054906101000a900463ffffffff16908060000160049054906101000a900463ffffffff16908060000160089054906101000a900463ffffffff169080600001600c9054906101000a900473ffffffffffffffffffffffffffffffffffffffff16905084565b600060089054906101000a900463ffffffff1681565b60608060606000806000600160008863ffffffff1663ffffffff168152602001908152602001600020600001600160008963ffffffff1663ffffffff168152602001908152602001600020600101600160008a63ffffffff1663ffffffff168152602001908152602001600020600201600160008b63ffffffff1663ffffffff16815260200190815260200160002060030160149054906101000a900463ffffffff16600160008c63ffffffff1663ffffffff16815260200190815260200160002060030160009054906101000a900473ffffffffffffffffffffffffffffffffffffffff16600160008d63ffffffff1663ffffffff16815260200190815260200160002060030160189054906101000a900463ffffffff16858054611c8390612bda565b80601f0160208091040260200160405190810160405280929190818152602001828054611caf90612bda565b8015611cfc5780601f10611cd157610100808354040283529160200191611cfc565b820191906000526020600020905b815481529060010190602001808311611cdf57829003601f168201915b50505050509550848054611d0f90612bda565b80601f0160208091040260200160405190810160405280929190818152602001828054611d3b90612bda565b8015611d885780601f10611d5d57610100808354040283529160200191611d88565b820191906000526020600020905b815481529060010190602001808311611d6b57829003601f168201915b50505050509450838054611d9b90612bda565b80601f0160208091040260200160405190810160405280929190818152602001828054611dc790612bda565b8015611e145780601f10611de957610100808354040283529160200191611e14565b820191906000526020600020905b815481529060010190602001808311611df757829003601f168201915b5050505050935095509550955095509550955091939550919395565b6001602052806000526040600020600091509050806000018054611e5390612bda565b80601f0160208091040260200160405190810160405280929190818152602001828054611e7f90612bda565b8015611ecc5780601f10611ea157610100808354040283529160200191611ecc565b820191906000526020600020905b815481529060010190602001808311611eaf57829003601f168201915b505050505090806001018054611ee190612bda565b80601f0160208091040260200160405190810160405280929190818152602001828054611f0d90612bda565b8015611f5a5780601f10611f2f57610100808354040283529160200191611f5a565b820191906000526020600020905b815481529060010190602001808311611f3d57829003601f168201915b505050505090806002018054611f6f90612bda565b80601f0160208091040260200160405190810160405280929190818152602001828054611f9b90612bda565b8015611fe85780601f10611fbd57610100808354040283529160200191611fe8565b820191906000526020600020905b815481529060010190602001808311611fcb57829003601f168201915b5050505050908060030160009054906101000a900473ffffffffffffffffffffffffffffffffffffffff16908060030160149054906101000a900463ffffffff16908060030160189054906101000a900463ffffffff16905086565b6060600460008363ffffffff1663ffffffff1681526020019081526020016000208054806020026020016040519081016040528092919081815260200182805480156120db57602002820191906000526020600020906000905b82829054906101000a900463ffffffff1663ffffffff168152602001906004019060208260030104928301926001038202915080841161209e5790505b50505050509050919050565b60008054906101000a900463ffffffff1681565b6000806000600481819054906101000a900463ffffffff168092919061212090612c3a565b91906101000a81548163ffffffff021916908363ffffffff160217905550905085600260008363ffffffff1663ffffffff168152602001908152602001600020600001908161216f9190612eff565b5084600260008363ffffffff1663ffffffff168152602001908152602001600020600101908161219f9190612eff565b5083600260008363ffffffff1663ffffffff16815260200190815260200160002060030160006101000a81548173ffffffffffffffffffffffffffffffffffffffff021916908373ffffffffffffffffffffffffffffffffffffffff16021790555082600260008363ffffffff1663ffffffff16815260200190815260200160002060020190816122309190612eff565b5080915050949350505050565b600060049054906101000a900463ffffffff1681565b6000604051905090565b600080fd5b600080fd5b600063ffffffff82169050919050565b61228081612267565b811461228b57600080fd5b50565b60008135905061229d81612277565b92915050565b6000819050919050565b6122b6816122a3565b81146122c157600080fd5b50565b6000813590506122d3816122ad565b92915050565b600080604083850312156122f0576122ef61225d565b5b60006122fe8582860161228e565b925050602061230f858286016122c4565b9150509250929050565b61232281612267565b82525050565b600060208201905061233d6000830184612319565b92915050565b60008060006060848603121561235c5761235b61225d565b5b600061236a8682870161228e565b935050602061237b8682870161228e565b925050604061238c8682870161228e565b9150509250925092565b60008115159050919050565b6123ab81612396565b82525050565b60006020820190506123c660008301846123a2565b92915050565b6000602082840312156123e2576123e161225d565b5b60006123f08482850161228e565b91505092915050565b600081519050919050565b600082825260208201905092915050565b60005b83811015612433578082015181840152602081019050612418565b60008484015250505050565b6000601f19601f8301169050919050565b600061245b826123f9565b6124658185612404565b9350612475818560208601612415565b61247e8161243f565b840191505092915050565b600073ffffffffffffffffffffffffffffffffffffffff82169050919050565b60006124b482612489565b9050919050565b6124c4816124a9565b82525050565b600060608201905081810360008301526124e48186612450565b90506124f360208301856124bb565b81810360408301526125058184612450565b9050949350505050565b600080fd5b600080fd5b7f4e487b7100000000000000000000000000000000000000000000000000000000600052604160045260246000fd5b6125518261243f565b810181811067ffffffffffffffff821117156125705761256f612519565b5b80604052505050565b6000612583612253565b905061258f8282612548565b919050565b600067ffffffffffffffff8211156125af576125ae612519565b5b6125b88261243f565b9050602081019050919050565b82818337600083830152505050565b60006125e76125e284612594565b612579565b90508281526020810184848401111561260357612602612514565b5b61260e8482856125c5565b509392505050565b600082601f83011261262b5761262a61250f565b5b813561263b8482602086016125d4565b91505092915050565b600080600080600060a086880312156126605761265f61225d565b5b600061266e8882890161228e565b955050602086013567ffffffffffffffff81111561268f5761268e612262565b5b61269b88828901612616565b945050604086013567ffffffffffffffff8111156126bc576126bb612262565b5b6126c888828901612616565b935050606086013567ffffffffffffffff8111156126e9576126e8612262565b5b6126f588828901612616565b92505060806127068882890161228e565b9150509295509295909350565b60006080820190506127286000830187612319565b6127356020830186612319565b61274260408301856124bb565b61274f6060830184612319565b95945050505050565b600080600080608085870312156127725761277161225d565b5b60006127808782880161228e565b945050602085013567ffffffffffffffff8111156127a1576127a0612262565b5b6127ad87828801612616565b935050604085013567ffffffffffffffff8111156127ce576127cd612262565b5b6127da87828801612616565b925050606085013567ffffffffffffffff8111156127fb576127fa612262565b5b61280787828801612616565b91505092959194509250565b6000608082019050818103600083015261282d8187612450565b905081810360208301526128418186612450565b905081810360408301526128558185612450565b905061286460608301846124bb565b95945050505050565b60006080820190506128826000830187612319565b61288f6020830186612319565b61289c6040830185612319565b6128a960608301846124bb565b95945050505050565b600060c08201905081810360008301526128cc8189612450565b905081810360208301526128e08188612450565b905081810360408301526128f48187612450565b90506129036060830186612319565b61291060808301856124bb565b61291d60a0830184612319565b979650505050505050565b600060c08201905081810360008301526129428189612450565b905081810360208301526129568188612450565b9050818103604083015261296a8187612450565b905061297960608301866124bb565b6129866080830185612319565b61299360a0830184612319565b979650505050505050565b600081519050919050565b600082825260208201905092915050565b6000819050602082019050919050565b6129d381612267565b82525050565b60006129e583836129ca565b60208301905092915050565b6000602082019050919050565b6000612a098261299e565b612a1381856129a9565b9350612a1e836129ba565b8060005b83811015612a4f578151612a3688826129d9565b9750612a41836129f1565b925050600181019050612a22565b5085935050505092915050565b60006020820190508181036000830152612a7681846129fe565b905092915050565b612a87816124a9565b8114612a9257600080fd5b50565b600081359050612aa481612a7e565b92915050565b60008060008060808587031215612ac457612ac361225d565b5b600085013567ffffffffffffffff811115612ae257612ae1612262565b5b612aee87828801612616565b945050602085013567ffffffffffffffff811115612b0f57612b0e612262565b5b612b1b87828801612616565b9350506040612b2c87828801612a95565b925050606085013567ffffffffffffffff811115612b4d57612b4c612262565b5b612b5987828801612616565b91505092959194509250565b50565b6000612b75600083612404565b9150612b8082612b65565b600082019050919050565b60006020820190508181036000830152612ba481612b68565b9050919050565b7f4e487b7100000000000000000000000000000000000000000000000000000000600052602260045260246000fd5b60006002820490506001821680612bf257607f821691505b602082108103612c0557612c04612bab565b5b50919050565b7f4e487b7100000000000000000000000000000000000000000000000000000000600052601160045260246000fd5b6000612c4582612267565b915063ffffffff8203612c5b57612c5a612c0b565b5b600182019050919050565b600081905092915050565b6000612c7c826123f9565b612c868185612c66565b9350612c96818560208601612415565b80840191505092915050565b6000612cae8284612c71565b915081905092915050565b60008190508160005260206000209050919050565b60008154612cdb81612bda565b612ce58186612c66565b94506001821660008114612d005760018114612d1557612d48565b60ff1983168652811515820286019350612d48565b612d1e85612cb9565b60005b83811015612d4057815481890152600182019150602081019050612d21565b838801955050505b50505092915050565b6000612d5d8284612cce565b915081905092915050565b60006020601f8301049050919050565b600082821b905092915050565b600060088302612db57fffffffffffffffffffffffffffffffffffffffffffffffffffffffffffffffff82612d78565b612dbf8683612d78565b95508019841693508086168417925050509392505050565b6000819050919050565b6000612dfc612df7612df2846122a3565b612dd7565b6122a3565b9050919050565b6000819050919050565b612e1683612de1565b612e2a612e2282612e03565b848454612d85565b825550505050565b600090565b612e3f612e32565b612e4a818484612e0d565b505050565b5b81811015612e6e57612e63600082612e37565b600181019050612e50565b5050565b601f821115612eb357612e8481612cb9565b612e8d84612d68565b81016020851015612e9c578190505b612eb0612ea885612d68565b830182612e4f565b50505b505050565b600082821c905092915050565b6000612ed660001984600802612eb8565b1980831691505092915050565b6000612eef8383612ec5565b9150826002028217905092915050565b612f08826123f9565b67ffffffffffffffff811115612f2157612f20612519565b5b612f2b8254612bda565b612f36828285612e72565b600060209050601f831160018114612f695760008415612f57578287015190505b612f618582612ee3565b865550612fc9565b601f198416612f7786612cb9565b60005b82811015612f9f57848901518255600182019150602085019450602081019050612f7a565b86831015612fbc5784890151612fb8601f891682612ec5565b8355505b6001600288020188555050505b50505050505056fea26469706673582212202d4fab47c1fbeb20b4665f93c61190643a0d7131674215ae5129e5fa055661b864736f6c63430008100033",
  "immutableReferences": {},
  "source": "// SPDX-License-Identifier: UNLICENSED\npragma solidity ^0.8.16;\n\ncontract SupplyChain {\n\n  uint32 public product_id = 0;\n  uint32 public participant_id = 0;\n  uint32 public owner_id = 0;\n\n  struct product {\n    string modelNumber;\n    string partNumber;\n    string serialNumber;\n    address productOwner;\n    uint32 cost;\n    uint32 mfgTimeStamp;\n  }\n  mapping(uint32 => product) public products;\n\n  struct participant {\n    string userName;\n    string password;\n    string participantType;\n    address participantAddress;\n  }\n  mapping(uint32 => participant) public participants;\n\n  struct ownership {\n    uint32 productId;\n    uint32 ownerId;\n    uint32 trxTimeStamp;\n    address productOwner;\n  }\n  mapping(uint32 => ownership) public ownerships; // ownerships by ownership id (owner_id)\n  mapping(uint32 => uint32[]) public productTrack; // ownerships by product id (product_id) / movement track for product\n\n  event TransferOwnership(uint32 productId);\n  // for logging\n  // event TransferOwnership(uint32 indexed productId);\n\n  //\n  function addParticipant(string memory _name, string memory _pass, address _pAdd, string memory _pType) public returns (uint32) {\n    uint32 userId = participant_id++;\n    participants[userId].userName = _name;\n    participants[userId].password = _pass;\n    participants[userId].participantAddress = _pAdd;\n    participants[userId].participantType = _pType;\n    return userId;\n  }\n\n  function getParticipant(uint32 _participantId) public view returns (string memory, address, string memory) {\n    return (\n      participants[_participantId].userName,\n      participants[_participantId].participantAddress,\n      participants[_participantId].participantType\n    );\n  }\n\n  function addProduct(\n    uint32 _ownerId,\n    string memory _modelNumber,\n    string memory _partNumber,\n    string memory _serialNumber,\n    uint32 _productCost\n  ) public returns (uint32) {\n    // cannot compare two strings in sol\n    if (keccak256(abi.encodePacked(participants[_ownerId].participantType)) == keccak256(\"Manufacturer\")) {\n      uint32 productId = product_id++;\n      products[productId].modelNumber = _modelNumber;\n      products[productId].partNumber = _partNumber;\n      products[productId].serialNumber = _serialNumber;\n      products[productId].cost = _productCost;\n      products[productId].productOwner = participants[_ownerId].participantAddress;\n      products[productId].mfgTimeStamp = uint32(block.timestamp);\n      return productId;\n    }\n    return 0;\n  }\n\n  function getProduct(uint32 _productId) public view returns (string memory, string memory, string memory, uint32, address, uint32) {\n    return (\n      products[_productId].modelNumber,\n      products[_productId].partNumber,\n      products[_productId].serialNumber,\n      products[_productId].cost,\n      products[_productId].productOwner,\n      products[_productId].mfgTimeStamp\n    );\n  }\n\n  modifier onlyOwner(uint32 _productId) {\n    require(msg.sender == products[_productId].productOwner, \"\");\n    // _ : next\n    _;\n  }\n\n  function newOwner(uint32 _user1Id, uint32 _user2Id, uint32 _prodId) onlyOwner(_prodId) public returns (bool) {\n    // create local vars so it does not get charged to block chain transaction\n    participant memory p1 = participants[_user1Id];\n    participant memory p2 = participants[_user2Id];\n    uint32 ownership_id = owner_id++;\n\n    // if checks prevents reversal, unsure how necessary this would be\n    if (keccak256(abi.encodePacked(p1.participantType)) == keccak256(\"Manufacturer\") && keccak256(abi.encodePacked(p2.participantType))==keccak256(\"Supplier\")) {\n      ownerships[ownership_id].productId = _prodId;\n      ownerships[ownership_id].productOwner = p2.participantAddress;\n      ownerships[ownership_id].ownerId = _user2Id;\n      ownerships[ownership_id].trxTimeStamp = uint32(block.timestamp);\n      products[_prodId].productOwner = p2.participantAddress;\n      productTrack[_prodId].push(ownership_id);\n      emit TransferOwnership(_prodId);\n      return (true);\n    }\n    else if (keccak256(abi.encodePacked(p1.participantType)) == keccak256(\"Supplier\") && keccak256(abi.encodePacked(p2.participantType))==keccak256(\"Supplier\")) {\n      ownerships[ownership_id].productId = _prodId;\n      ownerships[ownership_id].productOwner = p2.participantAddress;\n      ownerships[ownership_id].ownerId = _user2Id;\n      ownerships[ownership_id].trxTimeStamp = uint32(block.timestamp);\n      products[_prodId].productOwner = p2.participantAddress;\n      productTrack[_prodId].push(ownership_id);\n      emit TransferOwnership(_prodId);\n      return (true);\n    } else if (keccak256(abi.encodePacked(p1.participantType)) == keccak256(\"Supplier\") && keccak256(abi.encodePacked(p2.participantType))==keccak256(\"Consumer\")) {\n      ownerships[ownership_id].productId = _prodId;\n      ownerships[ownership_id].productOwner = p2.participantAddress;\n      ownerships[ownership_id].ownerId = _user2Id;\n      ownerships[ownership_id].trxTimeStamp = uint32(block.timestamp);\n      products[_prodId].productOwner = p2.participantAddress;\n      productTrack[_prodId].push(ownership_id);\n      emit TransferOwnership(_prodId);\n      return (true);\n    }\n    return (false);\n  }\n\n  function getProvenance(uint32 _prodId) external view returns (uint32[] memory) {\n    return productTrack[_prodId];\n  }\n\n  function getOwner(uint32 _regId) public view returns (uint32, uint32, address, uint32) {\n    ownership memory r = ownerships[_regId];\n    return (r.productId, r.ownerId, r.productOwner, r.trxTimeStamp);\n  }\n\n  function authenticateParticipant(\n    uint32 _uid,\n    string memory _uname,\n    string memory _pass,\n    string memory _utype\n  ) public view returns (bool) {\n    if (\n      keccak256(abi.encodePacked(participants[_uid].participantType)) == keccak256(abi.encodePacked(_utype))\n      && keccak256(abi.encodePacked(participants[_uid].userName)) == keccak256(abi.encodePacked(_uname))\n      && keccak256(abi.encodePacked(participants[_uid].password)) == keccak256(abi.encodePacked(_pass))\n    ) {\n      return (true);\n    }\n    return (false);\n  }\n\n}\n",
  "sourcePath": "/Users/jeffkang/blockchain/ethereum/learning/third/contracts/SupplyChain.sol",
  "compiler": {
    "name": "solc",
    "version": "0.8.16+commit.07a7930e.Emscripten.clang"
  },
  "schemaVersion": "3.4.9",
  "updatedAt": "2022-09-16T16:22:50.066Z",
  "networkType": "ethereum",
  "devdoc": {
    "kind": "dev",
    "methods": {},
    "version": 1
  },
  "userdoc": {
    "kind": "user",
    "methods": {},
    "version": 1
  }
}